{
  "transactions": [
    {
      "hash": "0x1829f805be41a862c7c8470c9fcfaf26e4e30925b2ff14acd02c9cce354fe5d3",
      "transactionType": "CALL",
      "contractName": null,
      "contractAddress": "0xa1f8b99b010c72201d149efbdc38b88b342e7c18",
      "function": "approve(address,uint256)",
      "arguments": [
        "0x06c6B72cEb2761b4Bb5cC802f24AAF52102BCE24",
        "500000000000000000000000000"
      ],
      "transaction": {
        "from": "0x5fc929237bd8167945a841c3ef35c0a865d360b2",
        "to": "0xa1f8b99b010c72201d149efbdc38b88b342e7c18",
        "gas": "0xf9eb",
        "value": "0x0",
        "input": "0x095ea7b300000000000000000000000006c6b72ceb2761b4bb5cc802f24aaf52102bce240000000000000000000000000000000000000000019d971e4fe8401e74000000",
        "nonce": "0x9",
        "chainId": "0x14a34"
      },
      "additionalContracts": [],
      "isFixedGasLimit": false
    },
    {
      "hash": "0xf636505c8a031243d01d44d89b1a18a4273d028591b6246ede6d8dbd3845fc9c",
      "transactionType": "CALL",
      "contractName": null,
      "contractAddress": "0x06c6b72ceb2761b4bb5cc802f24aaf52102bce24",
      "function": "send((uint32,bytes32,uint256,uint256,bytes,bytes,bytes),(uint256,uint256),address)",
      "arguments": [
        "(40102, 0x0000000000000000000000005fc929237bd8167945a841c3ef35c0a865d360b2, 500000000000000000000000000, 475000000000000000000000000, 0x0003010011010000000000000000000000000000fde8, 0x, 0x)",
        "(273906234355704, 0)",
        "0x1804c8AB1F12E6bbf3894d4083f33e07309d1f38"
      ],
      "transaction": {
        "from": "0x5fc929237bd8167945a841c3ef35c0a865d360b2",
        "to": "0x06c6b72ceb2761b4bb5cc802f24aaf52102bce24",
        "gas": "0x5f23e",
        "value": "0xf91dc3cceff8",
        "input": "0xc7c7f5b300000000000000000000000000000000000000000000000000000000000000800000000000000000000000000000000000000000000000000000f91dc3cceff800000000000000000000000000000000000000000000000000000000000000000000000000000000000000001804c8ab1f12e6bbf3894d4083f33e07309d1f380000000000000000000000000000000000000000000000000000000000009ca60000000000000000000000005fc929237bd8167945a841c3ef35c0a865d360b20000000000000000000000000000000000000000019d971e4fe8401e7400000000000000000000000000000000000000000000000188e92998b63ce9bb00000000000000000000000000000000000000000000000000000000000000000000e00000000000000000000000000000000000000000000000000000000000000120000000000000000000000000000000000000000000000000000000000000014000000000000000000000000000000000000000000000000000000000000000160003010011010000000000000000000000000000fde80000000000000000000000000000000000000000000000000000000000000000000000000000000000000000000000000000000000000000000000000000000000000000000000000000",
        "nonce": "0xa",
        "chainId": "0x14a34"
      },
      "additionalContracts": [],
      "isFixedGasLimit": false
    }
  ],
  "receipts": [
    {
      "status": "0x1",
      "cumulativeGasUsed": "0x7ef8b8",
      "logs": [
        {
          "address": "0xa1f8b99b010c72201d149efbdc38b88b342e7c18",
          "topics": [
            "0x8c5be1e5ebec7d5bd14f71427d1e84f3dd0314c0f7b2291e5b200ac8c7c3b925",
            "0x0000000000000000000000005fc929237bd8167945a841c3ef35c0a865d360b2",
            "0x00000000000000000000000006c6b72ceb2761b4bb5cc802f24aaf52102bce24"
          ],
          "data": "0x0000000000000000000000000000000000000000019d971e4fe8401e74000000",
          "blockHash": "0xd6246a0746a7b4c7d3c3ac8d9760e5b1791ff3b91cd95768d3da9ef63bdb7a25",
          "blockNumber": "0x1a1bd38",
          "transactionHash": "0x1829f805be41a862c7c8470c9fcfaf26e4e30925b2ff14acd02c9cce354fe5d3",
          "transactionIndex": "0x19",
          "logIndex": "0x130",
          "removed": false
        }
      ],
      "logsBloom": "0x00000000000000000000000000000000000000000000000000000000000000000000000020000000000000000000000000000002000000000000000000200000000000000000000000000000000000000008000000000000000000000000000000000000000000000000000000000000100000000000000000000000000000000000000000000000004000000000000000008000000000000000000000000000020000000000000000000000000000000000080000000000000000000000000000000000000000000000000000000000000000000000000000000000000000000010000002000000000008000000000000000000000000000000000000000000",
      "type": "0x2",
      "transactionHash": "0x1829f805be41a862c7c8470c9fcfaf26e4e30925b2ff14acd02c9cce354fe5d3",
      "transactionIndex": "0x19",
      "blockHash": "0xd6246a0746a7b4c7d3c3ac8d9760e5b1791ff3b91cd95768d3da9ef63bdb7a25",
      "blockNumber": "0x1a1bd38",
      "gasUsed": "0xb4f0",
      "effectiveGasPrice": "0x1f5",
      "blobGasUsed": "0x0",
      "from": "0x5fc929237bd8167945a841c3ef35c0a865d360b2",
      "to": "0xa1f8b99b010c72201d149efbdc38b88b342e7c18",
      "contractAddress": null,
      "l1BaseFeeScalar": "0x44d",
      "l1BlobBaseFee": "0x1",
      "l1BlobBaseFeeScalar": "0xa118b",
      "l1Fee": "0x44b05",
      "l1GasPrice": "0x26fbb",
      "l1GasUsed": "0x640"
    },
    {
      "status": "0x1",
      "cumulativeGasUsed": "0x957027",
      "logs": [
        {
          "address": "0xa1f8b99b010c72201d149efbdc38b88b342e7c18",
          "topics": [
            "0x8c5be1e5ebec7d5bd14f71427d1e84f3dd0314c0f7b2291e5b200ac8c7c3b925",
            "0x0000000000000000000000005fc929237bd8167945a841c3ef35c0a865d360b2",
            "0x00000000000000000000000006c6b72ceb2761b4bb5cc802f24aaf52102bce24"
          ],
          "data": "0x0000000000000000000000000000000000000000000000000000000000000000",
          "blockHash": "0xd6246a0746a7b4c7d3c3ac8d9760e5b1791ff3b91cd95768d3da9ef63bdb7a25",
          "blockNumber": "0x1a1bd38",
          "transactionHash": "0xf636505c8a031243d01d44d89b1a18a4273d028591b6246ede6d8dbd3845fc9c",
          "transactionIndex": "0x1e",
          "logIndex": "0x14e",
          "removed": false
        },
        {
          "address": "0xa1f8b99b010c72201d149efbdc38b88b342e7c18",
          "topics": [
            "0xddf252ad1be2c89b69c2b068fc378daa952ba7f163c4a11628f55a4df523b3ef",
            "0x0000000000000000000000005fc929237bd8167945a841c3ef35c0a865d360b2",
            "0x00000000000000000000000006c6b72ceb2761b4bb5cc802f24aaf52102bce24"
          ],
          "data": "0x0000000000000000000000000000000000000000019d971e4fe8401e74000000",
          "blockHash": "0xd6246a0746a7b4c7d3c3ac8d9760e5b1791ff3b91cd95768d3da9ef63bdb7a25",
          "blockNumber": "0x1a1bd38",
          "transactionHash": "0xf636505c8a031243d01d44d89b1a18a4273d028591b6246ede6d8dbd3845fc9c",
          "transactionIndex": "0x1e",
          "logIndex": "0x14f",
          "removed": false
        },
        {
          "address": "0xc1868e054425d378095a003ecba3823a5d0135c9",
          "topics": [
            "0x61ed099e74a97a1d7f8bb0952a88ca8b7b8ebd00c126ea04671f92a81213318a"
          ],
          "data": "0x0000000000000000000000008a3d588d9f6ac041476b094f97ff94ec30169d3d0000000000000000000000000000000000000000000000000000a8c5306300ed",
          "blockHash": "0xd6246a0746a7b4c7d3c3ac8d9760e5b1791ff3b91cd95768d3da9ef63bdb7a25",
          "blockNumber": "0x1a1bd38",
          "transactionHash": "0xf636505c8a031243d01d44d89b1a18a4273d028591b6246ede6d8dbd3845fc9c",
          "transactionIndex": "0x1e",
          "logIndex": "0x150",
          "removed": false
        },
        {
          "address": "0xc1868e054425d378095a003ecba3823a5d0135c9",
          "topics": [
            "0x07ea52d82345d6e838192107d8fd7123d9c2ec8e916cd0aad13fd2b60db24644"
          ],
          "data": "0x000000000000000000000000000000000000000000000000000000000000006000000000000000000000000000000000000000000000000000000000000000a000000000000000000000000000000000000000000000000000000000000000c00000000000000000000000000000000000000000000000000000000000000001000000000000000000000000e1a12515f9ab2764b887bf60b923ca494ebbb2d600000000000000000000000000000000000000000000000000000000000000000000000000000000000000000000000000000000000000000000000000000001000000000000000000000000000000000000000000000000000050589369ef0b",
          "blockHash": "0xd6246a0746a7b4c7d3c3ac8d9760e5b1791ff3b91cd95768d3da9ef63bdb7a25",
          "blockNumber": "0x1a1bd38",
          "transactionHash": "0xf636505c8a031243d01d44d89b1a18a4273d028591b6246ede6d8dbd3845fc9c",
          "transactionIndex": "0x1e",
          "logIndex": "0x151",
          "removed": false
        },
        {
          "address": "0x6edce65403992e310a62460808c4b910d972f10f",
          "topics": [
            "0x1ab700d4ced0c005b164c0f789fd09fcbb0156d4c2041b8a3bfbcd961cd1567f"
          ],
          "data": "0x00000000000000000000000000000000000000000000000000000000000000600000000000000000000000000000000000000000000000000000000000000120000000000000000000000000c1868e054425d378095a003ecba3823a5d0135c9000000000000000000000000000000000000000000000000000000000000009901000000000000000100009d3500000000000000000000000006c6b72ceb2761b4bb5cc802f24aaf52102bce2400009ca6000000000000000000000000a1f8b99b010c72201d149efbdc38b88b342e7c18e27d3cd08b2d58165344a5df8627c6acc35a751c947a16d030e981717c59a78c0000000000000000000000005fc929237bd8167945a841c3ef35c0a865d360b20001c6bf5263400000000000000000000000000000000000000000000000000000000000000000000000000000002a00030100110100000000000000000000000000013880010011010000000000000000000000000000fde800000000000000000000000000000000000000000000",
          "blockHash": "0xd6246a0746a7b4c7d3c3ac8d9760e5b1791ff3b91cd95768d3da9ef63bdb7a25",
          "blockNumber": "0x1a1bd38",
          "transactionHash": "0xf636505c8a031243d01d44d89b1a18a4273d028591b6246ede6d8dbd3845fc9c",
          "transactionIndex": "0x1e",
          "logIndex": "0x152",
          "removed": false
        },
        {
          "address": "0x06c6b72ceb2761b4bb5cc802f24aaf52102bce24",
          "topics": [
            "0x85496b760a4b7f8d66384b9df21b381f5d1b1e79f229a47aaf4c232edc2fe59a",
            "0xe27d3cd08b2d58165344a5df8627c6acc35a751c947a16d030e981717c59a78c",
            "0x0000000000000000000000005fc929237bd8167945a841c3ef35c0a865d360b2"
          ],
          "data": "0x0000000000000000000000000000000000000000000000000000000000009ca60000000000000000000000000000000000000000019d971e4fe8401e740000000000000000000000000000000000000000000000019d971e4fe8401e74000000",
          "blockHash": "0xd6246a0746a7b4c7d3c3ac8d9760e5b1791ff3b91cd95768d3da9ef63bdb7a25",
          "blockNumber": "0x1a1bd38",
          "transactionHash": "0xf636505c8a031243d01d44d89b1a18a4273d028591b6246ede6d8dbd3845fc9c",
          "transactionIndex": "0x1e",
          "logIndex": "0x153",
          "removed": false
        }
      ],
      "logsBloom": "0x00000000000000000000000000000000000000000000000000000000000000000000000020000200200000000010000000000002000000000000000000200000000002000000000000000008000000000008000000000000000000020000000000000000000000008200000000000000100000000000000000000010000000000000000000000020004000080000000000008000000000000000000000800000020000008000000000100000000000000000080000400000000440000000000080000002000004000008000080000000100000000000000000000000000000000010040002000000000008000000002000000000008000000000100000000000",
      "type": "0x2",
      "transactionHash": "0xf636505c8a031243d01d44d89b1a18a4273d028591b6246ede6d8dbd3845fc9c",
      "transactionIndex": "0x1e",
      "blockHash": "0xd6246a0746a7b4c7d3c3ac8d9760e5b1791ff3b91cd95768d3da9ef63bdb7a25",
      "blockNumber": "0x1a1bd38",
      "gasUsed": "0x410da",
      "effectiveGasPrice": "0x1f5",
      "blobGasUsed": "0x0",
      "from": "0x5fc929237bd8167945a841c3ef35c0a865d360b2",
      "to": "0x06c6b72ceb2761b4bb5cc802f24aaf52102bce24",
      "contractAddress": null,
      "l1BaseFeeScalar": "0x44d",
      "l1BlobBaseFee": "0x1",
      "l1BlobBaseFeeScalar": "0xa118b",
      "l1Fee": "0x8434b",
      "l1GasPrice": "0x26fbb",
      "l1GasUsed": "0xc07"
    }
  ],
  "libraries": [],
  "pending": [],
  "returns": {},
  "timestamp": 1750522201,
  "chain": 84532,
  "commit": null
}