{
  "transactions": [
    {
      "hash": "0x3b0598c860d768415b5231484e28e4524698220ff96a3a6adf4430b7c217c8b7",
      "transactionType": "CALL",
      "contractName": null,
      "contractAddress": "0xa1f8b99b010c72201d149efbdc38b88b342e7c18",
      "function": "send((uint32,bytes32,uint256,uint256,bytes,bytes,bytes),(uint256,uint256),address)",
      "arguments": [
        "(40245, 0x0000000000000000000000005fc929237bd8167945a841c3ef35c0a865d360b2, 200000000000000000000000000, 190000000000000000000000000, 0x0003010011010000000000000000000000000000fde8, 0x, 0x)",
        "(45438841246072, 0)",
        "0x1804c8AB1F12E6bbf3894d4083f33e07309d1f38"
      ],
      "transaction": {
        "from": "0x5fc929237bd8167945a841c3ef35c0a865d360b2",
        "to": "0xa1f8b99b010c72201d149efbdc38b88b342e7c18",
        "gas": "0x51ae8",
        "value": "0x29538dfdd178",
        "input": "0xc7c7f5b30000000000000000000000000000000000000000000000000000000000000080000000000000000000000000000000000000000000000000000029538dfdd17800000000000000000000000000000000000000000000000000000000000000000000000000000000000000001804c8ab1f12e6bbf3894d4083f33e07309d1f380000000000000000000000000000000000000000000000000000000000009d350000000000000000000000005fc929237bd8167945a841c3ef35c0a865d360b2000000000000000000000000000000000000000000a56fa5b99019a5c80000000000000000000000000000000000000000000000009d2a10a37c185d7e00000000000000000000000000000000000000000000000000000000000000000000e00000000000000000000000000000000000000000000000000000000000000120000000000000000000000000000000000000000000000000000000000000014000000000000000000000000000000000000000000000000000000000000000160003010011010000000000000000000000000000fde80000000000000000000000000000000000000000000000000000000000000000000000000000000000000000000000000000000000000000000000000000000000000000000000000000",
        "nonce": "0x7",
        "chainId": "0x61"
      },
      "additionalContracts": [],
      "isFixedGasLimit": false
    }
  ],
  "receipts": [
    {
      "status": "0x1",
      "cumulativeGasUsed": "0x5a5464",
      "logs": [
        {
          "address": "0xa1f8b99b010c72201d149efbdc38b88b342e7c18",
          "topics": [
            "0xddf252ad1be2c89b69c2b068fc378daa952ba7f163c4a11628f55a4df523b3ef",
            "0x0000000000000000000000005fc929237bd8167945a841c3ef35c0a865d360b2",
            "0x0000000000000000000000000000000000000000000000000000000000000000"
          ],
          "data": "0x000000000000000000000000000000000000000000a56fa5b99019a5c8000000",
          "blockHash": "0xb4dec6e86461ad532452ec205241aafee4989fb87cfe4bbd083659b6a1088a99",
          "blockNumber": "0x35337b0",
          "transactionHash": "0x3b0598c860d768415b5231484e28e4524698220ff96a3a6adf4430b7c217c8b7",
          "transactionIndex": "0x1e",
          "logIndex": "0x61",
          "removed": false
        },
        {
          "address": "0x55f16c442907e86d764afdc2a07c2de3bdac8bb7",
          "topics": [
            "0x61ed099e74a97a1d7f8bb0952a88ca8b7b8ebd00c126ea04671f92a81213318a"
          ],
          "data": "0x00000000000000000000000031894b190a8babd9a067ce59fde0bfcfd2b1847000000000000000000000000000000000000000000000000000001b8d0a47d37f",
          "blockHash": "0xb4dec6e86461ad532452ec205241aafee4989fb87cfe4bbd083659b6a1088a99",
          "blockNumber": "0x35337b0",
          "transactionHash": "0x3b0598c860d768415b5231484e28e4524698220ff96a3a6adf4430b7c217c8b7",
          "transactionIndex": "0x1e",
          "logIndex": "0x62",
          "removed": false
        },
        {
          "address": "0x55f16c442907e86d764afdc2a07c2de3bdac8bb7",
          "topics": [
            "0x07ea52d82345d6e838192107d8fd7123d9c2ec8e916cd0aad13fd2b60db24644"
          ],
          "data": "0x000000000000000000000000000000000000000000000000000000000000006000000000000000000000000000000000000000000000000000000000000000a000000000000000000000000000000000000000000000000000000000000000c000000000000000000000000000000000000000000000000000000000000000010000000000000000000000000ee552262f7b562efced6dd4a7e2878ab897d4050000000000000000000000000000000000000000000000000000000000000000000000000000000000000000000000000000000000000000000000000000000100000000000000000000000000000000000000000000000000000dc683b5fdf9",
          "blockHash": "0xb4dec6e86461ad532452ec205241aafee4989fb87cfe4bbd083659b6a1088a99",
          "blockNumber": "0x35337b0",
          "transactionHash": "0x3b0598c860d768415b5231484e28e4524698220ff96a3a6adf4430b7c217c8b7",
          "transactionIndex": "0x1e",
          "logIndex": "0x63",
          "removed": false
        },
        {
          "address": "0x6edce65403992e310a62460808c4b910d972f10f",
          "topics": [
            "0x1ab700d4ced0c005b164c0f789fd09fcbb0156d4c2041b8a3bfbcd961cd1567f"
          ],
          "data": "0x0000000000000000000000000000000000000000000000000000000000000060000000000000000000000000000000000000000000000000000000000000012000000000000000000000000055f16c442907e86d764afdc2a07c2de3bdac8bb7000000000000000000000000000000000000000000000000000000000000009901000000000000000100009ca6000000000000000000000000a1f8b99b010c72201d149efbdc38b88b342e7c1800009d3500000000000000000000000006c6b72ceb2761b4bb5cc802f24aaf52102bce240df3ada022aec559b8003fae46c62591f0b4fca3ebe11b4d178625774cdff3c70000000000000000000000005fc929237bd8167945a841c3ef35c0a865d360b20000b5e620f4800000000000000000000000000000000000000000000000000000000000000000000000000000002a00030100110100000000000000000000000000013880010011010000000000000000000000000000fde800000000000000000000000000000000000000000000",
          "blockHash": "0xb4dec6e86461ad532452ec205241aafee4989fb87cfe4bbd083659b6a1088a99",
          "blockNumber": "0x35337b0",
          "transactionHash": "0x3b0598c860d768415b5231484e28e4524698220ff96a3a6adf4430b7c217c8b7",
          "transactionIndex": "0x1e",
          "logIndex": "0x64",
          "removed": false
        },
        {
          "address": "0xa1f8b99b010c72201d149efbdc38b88b342e7c18",
          "topics": [
            "0x85496b760a4b7f8d66384b9df21b381f5d1b1e79f229a47aaf4c232edc2fe59a",
            "0x0df3ada022aec559b8003fae46c62591f0b4fca3ebe11b4d178625774cdff3c7",
            "0x0000000000000000000000005fc929237bd8167945a841c3ef35c0a865d360b2"
          ],
          "data": "0x0000000000000000000000000000000000000000000000000000000000009d35000000000000000000000000000000000000000000a56fa5b99019a5c8000000000000000000000000000000000000000000000000a56fa5b99019a5c8000000",
          "blockHash": "0xb4dec6e86461ad532452ec205241aafee4989fb87cfe4bbd083659b6a1088a99",
          "blockNumber": "0x35337b0",
          "transactionHash": "0x3b0598c860d768415b5231484e28e4524698220ff96a3a6adf4430b7c217c8b7",
          "transactionIndex": "0x1e",
          "logIndex": "0x65",
          "removed": false
        }
      ],
      "logsBloom": "0x00000004000000000000000000000000000000000000000000000000040000000000000020000000200000000000000000000000000000000000000000000000000002000000000000000008000000000008000000000000000000000000000000000000020000008200000000000800000100000000000000000010000004000000000080000020004000080000000000000000000000000000000000000000000000008000000000100000000000000000080000400000000440000000000000000002000000000000000080000000000000000000000000000000000020000000040002000000000008000000002000000000008000000000000000000000",
      "type": "0x0",
      "transactionHash": "0x3b0598c860d768415b5231484e28e4524698220ff96a3a6adf4430b7c217c8b7",
      "transactionIndex": "0x1e",
      "blockHash": "0xb4dec6e86461ad532452ec205241aafee4989fb87cfe4bbd083659b6a1088a99",
      "blockNumber": "0x35337b0",
      "gasUsed": "0x3b22e",
      "effectiveGasPrice": "0x5f5e100",
      "from": "0x5fc929237bd8167945a841c3ef35c0a865d360b2",
      "to": "0xa1f8b99b010c72201d149efbdc38b88b342e7c18",
      "contractAddress": null
    }
  ],
  "libraries": [],
  "pending": [],
  "returns": {},
  "timestamp": 1750668436,
  "chain": 97,
  "commit": null
}